S315080000001004002001010008D10D0008150D000894
S31508000010CD0D00086D0100085D0E00080000000007
S31508000020000000000000000000000000010E0008AB
S315080000307101000800000000D50D0008030E000835
S315080000401B0100081B0100081B0100081B01000812
S315080000501B0100081B0100081B0100081B01000802
S315080000601B0100081B0100081B0100081B010008F2
S315080000701B0100081B0100081B0100081B010008E2
S315080000801B0100081B0100081B0100081B010008D2
S315080000901B0100081B0100081B0100081B010008C2
S315080000A01B0100081B0100081B0100081B010008B2
S315080000B01B0100081B0100081B0100081B010008A2
S315080000C01B0100081B0100081B0100081B01000892
S315080000D01B0100081B0100081B0100081B01000882
S315080000E01B0100081B0100081B010008DFF80CD0E3
S315080000F000F02AF800480047B90E0008100400204E
S315080001000648804706480047FEE7FEE7FEE7FEE7A3
S31508000110FEE7FEE7FEE7FEE7FEE7FEE75B0E000802
S31508000120ED000008D2B201E000F8012B491EFBD20F
S3150800013070470022F6E710B513460A4604461946E4
S31508000140FFF7F0FF204610BD064C074D06E0E068B5
S3150800015040F0010394E8070098471034AC42F6D300
S31508000160FFF7C8FF240F0008440F000800BFFEE78A
S31508000170704772B600BFFEE770B5044600F0A6F9F0
S3150800018006462546681C10B104480078054400BF99
S3150800019000F09CF9801BA842FAD370BD0C00002021
S315080001A02DE9F8470346002294466EE14FF0010810
S315080001B008FA02F4D1F8008008EA0400A0427DD1CA
S315080001C0DFF8DCA2D1F80480A8EB0A09D0453AD0BA
S315080001D014DCB8F1030F50D009DCB8F1000F31D0A8
S315080001E0B8F1010F1CD0B8F1020F49D120E0B8F1DF
S315080001F0110F18D0B8F1120F42D11EE0B9F5881FB9
S3150800020025D006DCB9F5803F20D0B9F5801F37D157
S315080002101AE0B9F5001F18D0B9F5041F30D117E058
S31508000220D1F80CC02DE0D1F80C8008F1040C28E0B8
S31508000230D1F80C8008F1080C23E0D1F80C8008F1FD
S315080002400C0C1EE000BF00BF00BF00BF00BF00BF10
S31508000250D1F80880B8F1000F02D14FF0040C0BE07A
S31508000260D1F80880B8F1010F03D14FF0080C1C61D2
S3150800027002E04FF0080C5C6103E04FF0000C00E070
S3150800028000BF00BFFF2801D8984601E003F1040823
S315080002904646FF2802D84FEA820803E0A2F108087A
S315080002A04FEA88084746D6F800804FF00F0909FA42
S315080002B007F928EA09080CFA07F900E088E048EA8D
S315080002C00908C6F80080D1F8048008F08058B8F10B
S315080002D0805F7DD100BFDFF8CC81D8F8188048F060
S315080002E00108DFF8C091C9F81880C846D8F8188000
S315080002F008F00108CDF8008000BF00BF4FEAB93802
S315080003004FEA920958F829504FEA82784FEA187945
S315080003104FF00F0808FA09F825EA0805DFF888817A
S31508000320434502D14FF0000816E0DFF880814345C7
S3150800033002D14FF001080FE0DFF87481434502D17E
S315080003404FF0020808E0DFF86C81434502D14FF010
S31508000350030801E04FF004084FEA82794FEA197959
S3150800036008FA09F848EA0505DFF84C814FEA9209C8
S3150800037048F82950D1F8048008F48038B8F5803F49
S315080003800AD1DFF83881D8F8008048EA0008DFF893
S315080003902C91C9F8008009E0DFF82081D8F80080A0
S315080003A028EA0008DFF81491C9F80080D1F804801B
S315080003B008F40038B8F5003F10D1DFF8008108F1DD
S315080003C00408D8F8008048EA0008DFF8F09000E052
S315080003D05AE009F10409C9F800800DE0DFF8DC806D
S315080003E008F10408D8F8008028EA0008DFF8CC905D
S315080003F009F10409C9F80080D1F8048008F48018C6
S31508000400B8F5801F0ED1DFF8B48008F10808D8F8CF
S31508000410008048EA0008DFF8A49009F10809C9F83D
S3150800042000800DE0DFF8948008F10808D8F800800D
S3150800043028EA0008DFF8849009F10809C9F800805D
S31508000440D1F8048008F40018B8F5001F0ED1DFF8BB
S315080004506C8008F10C08D8F8008048EA0008DFF834
S315080004605C9009F10C09C9F800800DE0DFF84C80B2
S3150800047008F10C08D8F8008028EA0008DFF83C9054
S3150800048009F10C09C9F80080521CD1F8008028FA35
S3150800049002F8B8F1000F7FF489AEBDE8F8870000CE
S315080004A0000011100010024000080140000C014035
S315080004B000100140001401400800014000040140FA
S315080004C00AB1016101E00B04036170470148006845
S315080004D070470000040000200348006803490978B3
S315080004E00844014908607047040000200C000020F9
S315080004F010B50848006840F0100006490860032057
S3150800050000F098F8002000F007F800F02BF800201B
S3150800051010BD00000020024070B504460E48007861
S315080005204FF47A71B1FBF0F00C490968B1FBF0F5AC
S31508000530284600F0D5FB08B1012070BD102C07D263
S3150800054000222146501E00F037F80548046001E0F5
S315080005500120F2E70020F0E70C0000200000002050
S315080005600800002008B500BF1148806940F0010066
S315080005700F4988610846806900F00100009000BFB5
S3150800058000BF00BF0846C06940F08050C8610846F1
S31508000590C06900F08050009000BF00BF00BF054949
S315080005A0486820F0E06040F00070486000BF08BD71
S315080005B000100240000001402DE9F05F80460D461C
S315080005C01646002700F04CFC074639462A463346AD
S315080005D001F00700C0F1070ABAF1040F02D94FF07B
S315080005E0040A01E0C0F1070AD14600F1040ABAF18B
S315080005F0070F02D24FF0000A01E0A0F1030AD44621
S315080006004FF0010A0AFA09FAAAF1010A0AEA020AE5
S315080006100AFA0CFA4FF0010B0BFA0CFBABF1010BC3
S315080006200BEA030B4AEA0B042146404600F020FC7D
S31508000630BDE8F09F00BF00F00702064B19684FF6A9
S31508000640FF031940044B0B4343EA0221014B19608F
S3150800065000BF70470CED00E00000FA0570B50446CF
S315080006600D460CB9012070BD5A48006800F0070015
S31508000670A8420ED25748006820F00700284355497B
S3150800068008600846006800F00700A84201D001206B
S31508000690E9E7207800F0020002281DD1207800F052
S315080006A00400042805D14C48406840F4E0604A49F3
S315080006B04860207800F00800082805D146484068B8
S315080006C040F46050444948604348406820F0F000D0
S315080006D0A168084340494860207800F0010078B3D3
S315080006E06068012806D13C48006800F4003090B9DB
S315080006F00120B8E76068022806D13748006800F08C
S31508000700007040B90120AEE73348006800F00200E7
S3150800071008B90120A7E73048406820F0030061685F
S3150800072008432D494860FFF7D1FE064609E0FFF762
S31508000730CDFE801B41F28831884202D9032092E718
S3150800074007E02548406800F00C006168B0EB810FAF
S31508000750EDD12048006800F00700A8420ED91D48D0
S31508000760006820F0070028431A4908600846006810
S3150800077000F00700A84201D0012074E7207800F0B5
S315080007800400042807D11448406820F4E060E168B2
S31508000790084311494860207800F00800082808D165
S315080007A00D48406820F46050216940EAC1000A49B2
S315080007B0486000F019F808494968C1F30311074A67
S315080007C0515CC8400649086006480068FFF7A4FE61
S315080007D0002048E700200240001002400C0F0008E5
S315080007E00000002008000020F0B585B00FF26C0C60
S315080007F09CE8E01001A8A0E8E0101CA52D6800956B
S3150800080000210022002300240020194D696801F008
S315080008100C05F5B1042D02D0082D19D101E01548B3
S3150800082019E001ADC1F38346AC5D01F4803555B1DD
S315080008300F4D6D68C5F340451DF805200D4D654300
S31508000840B5FBF2F302E00C4D04FB05F3184602E093
S3150800085000BF084800BF00BF05B0F0BD020304058D
S31508000860060708090A0B0C0D0E0F101001020000EE
S315080008700010024000127A0000093D00F8B504464F
S315080008800CB90120F8BD207800F00100002878D0C6
S31508000890F848406800F00C0004280CD0F548406879
S315080008A000F00C00082811D1F248406800F48030A6
S315080008B0B0F5803F0AD1EF48006800F40030002800
S315080008C05FD0606800285CD10120DBE700BF606864
S315080008D0B0F5803F06D1E748006840F48030E54926
S315080008E0086028E0606858B9E248006820F480305B
S315080008F0E04908600846006820F4802008601AE08D
S315080009006068B0F5A02F0BD1DA48006840F4802063
S31508000910D84908600846006840F4803008600AE054
S31508000920D448006820F48030D24908600846006838
S3150800093020F48020086000BF606888B1FFF7C6FD14
S31508000940054606E0FFF7C2FD401B642801D90320CF
S3150800095098E7C848006800F400300028F2D010E094
S31508000960FFF7B4FD054606E0FFF7B0FD401B642817
S3150800097001D9032086E7BF48006800F40030002844
S31508000980F2D1207800F00200022857D1B948406811
S3150800099000F00C0050B1B748406800F00C00082879
S315080009A018D1B448406800F4803098B9B148006856
S315080009B000F0020020B12069012801D0012061E77A
S315080009C0AC48006820F0F800616940EAC100A9490E
S315080009D0086033E02069E8B10120A7490860FFF7FD
S315080009E075FD054606E0FFF771FD401B022801D993
S315080009F0032047E79F48006800F002000028F2D06D
S31508000A009C48006820F0F800616940EAC1009949ED
S31508000A10086013E0002098490860FFF757FD05466F
S31508000A2006E0FFF753FD401B022801D9032029E7FA
S31508000A309048006800F002000028F2D1207800F003
S31508000A40080008282DD1A069B8B101208B49086093
S31508000A50FFF73CFD054606E0FFF738FD401B022878
S31508000A6001D903200EE78348406A00F002000028F7
S31508000A70F2D0012000F0B0F913E000207F490860A9
S31508000A80FFF724FD054606E0FFF720FD401B022878
S31508000A9001D90320F6E67748406A00F002000028EC
S31508000AA0F2D1207800F00400042873D10027714899
S31508000AB0C06900F0805070B900BF6E48C06940F048
S31508000AC080506C49C8610846C06900F080500090A3
S31508000AD000BF00BF01276A48006800F48070B0B9FB
S31508000AE06748006840F4807065490860FFF7EEFCC7
S31508000AF0054606E0FFF7EAFC401B642801D90320F7
S31508000B00C0E65F48006800F480700028F2D000BF95
S31508000B10E068012806D15748006A40F001005549A7
S31508000B20086227E0E06858B95248006A20F00100D8
S31508000B30504908620846006A20F00400086219E075
S31508000B40E06805280BD14B48006A40F00400494983
S31508000B5008620846006A40F0010008620AE0454853
S31508000B60006A20F00100434908620846006A20F03E
S31508000B700400086200BFE068A0B1FFF7A7FC0546BD
S31508000B8009E0FFF7A3FC401B41F28831884202D9ED
S31508000B90032077E622E03748006A00F002000028C2
S31508000BA0EFD012E0FFF792FC054608E0FFF78EFC4F
S31508000BB0401B41F28831884201D9032062E62D485C
S31508000BC0006A00F002000028F0D1012F05D129485B
S31508000BD0C06920F080502749C86100BFE069C8B3E2
S31508000BE02448406800F00C00082860D0E069022814
S31508000BF048D1002020490866FFF768FC054606E04C
S31508000C00FFF764FC401B022801D903203AE619487D
S31508000C10006800F000700028F2D1206AB0F5803F25
S31508000C2007D11448406820F40030A16808431149E8
S31508000C304860D4E9080108430E49496821F474114B
S31508000C4008430C49486001200B490866FFF73EFC3B
S31508000C50054607E03DE0FFF739FC401B022801D9AD
S31508000C6003200FE60348006800F000700028F2D061
S31508000C702FE0000000100240000042428004424279
S31508000C8000700040002014490866FFF71FFC05465F
S31508000C9006E0FFF71BFC401B022801D90320F1E5FB
S31508000CA00E48006800F000700028F2D111E0E069F3
S31508000CB0012800D1E6E50948466806F48031206A2D
S31508000CC0814204D106F47011606A814201D0012084
S31508000CD0D8E50020D6E50000000042420010024098
S31508000CE070B504462546681EB0F1807F01D3012001
S31508000CF00FE0681E4FF0E02148610F214FF0FF30EA
S31508000D0000F0B6F800204FF0E0218861072008615E
S31508000D10002070BD00BFFEE700B585B00020019039
S31508000D2002900390049000BF2548806940F01000A7
S31508000D30234988610846806900F01000009000BFCA
S31508000D4000BF00BF0846806940F008008861084671
S31508000D50806900F00800009000BF00BF00BF084689
S31508000D60806940F0040088610846806900F0040044
S31508000D70009000BF00BF012251031248FFF7A0FBF5
S31508000D80012211031048FFF79BFB4FF40050019016
S31508000D900120029003900220049001A90948FFF758
S31508000DA0FFF94FF480500190012002900390022031
S31508000DB0049001A90448FFF7F3F905B000BD000047
S31508000DC00010024000100140000C014000BFFEE781
S31508000DD000BFFEE77047000008B508490968C9085A
S31508000DE04FF47A72B1FBF2F14143009100BF00BFA4
S31508000DF000994A1E00920029F9D108BD000000207A
S31508000E00704710B5FFF768FB10BD00B58FB02821F5
S31508000E1005A8FFF78EF914216846FFF78AF902201C
S31508000E2005900120099010200A9000200C9005A832
S31508000E30FFF724FD08B1FFF79CF90F20009000206A
S31508000E40019002900390049000216846FFF706FC83
S31508000E5008B1FFF78EF90FB000BD704700BFFEE777
S31508000E6002480068C0F30220704700000CED00E05D
S31508000E7010B5002804DB0A07130E054A135406E0CA
S31508000E800A07140E034A00F00F031B1FD45410BDA3
S31508000E9000E400E018ED00E002E008C8121F08C1EF
S31508000EA0002AFAD170477047002001E001C1121FDD
S31508000EB0002AFBD170470000FFF71AFBFFF7A5FFD2
S31508000EC0FFF72AFF4FF4FA641BE000224FF40051A3
S31508000ED00C48FFF7F5FA012211030B48FFF7F0FA61
S31508000EE02046FFF749F9012251030648FFF7E8FAB9
S31508000EF000224FF480510448FFF7E2FA2046FFF734
S31508000F003BF9E2E700100140000C01400000000038
S31508000F10000000000102030406070809000000009B
S31508000F2001020304440F000800000020100000001E
S31508000F30980E0008540F0008100000200004000056
S31508000F40A80E00080024F4000000000010000000AD
S30908000F50010000008E
S705080000ED05
